:0C000000B2C0FECFFDCFFCCFFBCFFACF8B
:10000C00F9CFF8CFF7CFF6CFF5CFF4CFF3CFF2CFC0
:10001C00F1CFF0CFEFCFEECFEDCF008040C020A0DE
:10002C0060E0109050D030B070F0088848C828A814
:10003C0068E8189858D838B878F8048444C424A4CC
:10004C0064E4149454D434B474F40C8C4CCC2CACB4
:10005C006CEC1C9C5CDC3CBC7CFC028242C222A290
:10006C0062E2129252D232B272F20A8A4ACA2AAAB4
:10007C006AEA1A9A5ADA3ABA7AFA068646C626A66C
:10008C0066E6169656D636B676F60E8E4ECE2EAE54
:10009C006EEE1E9E5EDE3EBE7EFE018141C121A142
:1000AC0061E1119151D131B171F1098949C929A984
:1000BC0069E9199959D939B979F9058545C525A53C
:1000CC0065E5159555D535B575F50D8D4DCD2DAD24
:1000DC006DED1D9D5DDD3DBD7DFD038343C323A300
:1000EC0063E3139353D333B373F30B8B4BCB2BAB24
:1000FC006BEB1B9B5BDB3BBB7BFB078747C727A7DC
:10010C0067E7179757D737B777F70F8F4FCF2FAFC3
:10011C006FEF1F9F5FDF3FBF7FFF2B2C3B3D5B5D76
:10012C002A3F3C3A3E5C7C22000056312E30203275
:10013C00332D30352D323031332000626F6F742FF8
:10014C00736462696F732E726B7300626F6F742FBE
:10015C00626F6F742E726B730000F894EE27ECBB19
:10016C00F1E0FBBFEBBFE5BFF8E1F1BDE1BD8DE018
:10017C00A2E0BB27ED938A95E9F780E094E0A0E636
:10018C00ED930197E9F7EFE5EDBFE4E0EEBFC0E6D4
:10019C00D1E0DCC9989BFECF9899FECF0895FADF89
:1001AC00EFEFE1BB09C0F6DFE0E0E1BBE5E2F1E037
:1001BC00049002BA0895EEDFE8817DDA049002BA69
:1001CC0021960895E7DFE0B376DAE491089577DAC3
:1001DC0080DA82DAE0E0F2E082DA43C170DA64D7E6
:1001EC0040C12C97E2E0F0E060E070E07ADA82DA6D
:1001FC0085DAE2E05E2EF4D6E03011F0E1E017C1D2
:10020C00E0E0E887E987EA87EB877CDA80DA11F0AF
:10021C00E1E00DC1E0915E03F0915F03E535AAEAE0
:10022C00FA0719F5E0919601F0919701E634A1E4F3
:10023C00FA07F9F0E091B201F091B301E634A1E4D0
:10024C00FA07B9F068DA5BDE21F4E0912203E030C2
:10025C0009F40BC0E0912603F09127036091280369
:10026C00709129035DDA43DE81F6E1E05EDAE1E0CC
:10027C00DEC0E0917601F09177015ADA5CDA60DA4F
:10028C0036DE49F4E0918401F0918501609186019C
:10029C007091870150DAE0917301F091740155DA95
:1002AC0057DA25DE49F4E0918001F09181016091EB
:1002BC008201709183014EDA60907101709072012D
:1002CC004BDA29DA4EDAE0936703F0936803609314
:1002DC00690370936A03E0E0E0936B03E0936C03B3
:1002EC00E0936D03E0936E03A0917001A23050F087
:1002FC003BDAF6DCE0936B03F0936C0360936D03D5
:10030C0070936E0340906D01E091700137DA38DA2A
:10031C003CDA41DD10DA20DA3ADA0ADADBDDEADC43
:10032C002FDAE8DC36DAF30119DD02DAE8DC34DA4C
:10033C0065DDEE5FFF4F6F4F7F4FE0936F03F093E0
:10034C00700360937103709372030EDACEDCF301C9
:10035C0005DD07DAE0937703F09378036093790374
:10036C0070937A031CDAA73FEFE0BE07E0E08E073C
:10037C00E0E09E0708F479CF12DAA73FEFEFBE0753
:10038C00E0E08E07E0E09E0728F4EED9A9DC10DA55
:10039C0055244CC0E0918C01F0918D0160918E013F
:1003AC0070918F0105DAA0916E01B0916F01A3DD00
:1003BC00D8F5A8D906DAB4D9AAD911F0E1E037C03A
:1003CC00A0916001B09161018091620190916301F3
:1003DC00A235E2E5BE07E1E68E07E1E49E07C9F42B
:1003EC00E0914403F09145036091460370914703FB
:1003FC00E237A2E7FA07A1E46A07A1E67A0749F413
:10040C00E5D9E030A0E0FA07A5E56A07AAEA7A0781
:10041C0009F00AC0E8E4F3E0E2D9ECE4F3E0DFD958
:10042C00E4D911F0E1E003C0E1E05E2EE0E02C96AF
:10043C000895A0D5E03009F452C5D3DE0895249771
:10044C00E0915A03F0915B0380D9552049F0E0917B
:10045C005403F09155036CD994DC99D955DC7AD9B5
:10046C0077D924960895552089F4C4D9CFD9D4D9F5
:10047C00E2E0EA9F1A920A92DCD931D9E03019F500
:10048C00DBD9EF7FFF7F607070700EC0B3D9DDD900
:10049C00C3D9E1D95EDCE4D922D9E030A1F4CCD9BE
:1004AC00EF7FFF7F6F7F7F70E0936003F0936103BA
:1004BC006093620370936303D7D9DFD910F0E5D949
:1004CC0008F0EED90CC500C5B7D9E250F040604039
:1004DC007040F0D960DCF0D903DCF7D90895FED96F
:1004EC0099F1A1E8B3E0ED91FD913196FE93EE9375
:1004FC00F9D9109739F0FBD921F4F4D96A167B0697
:10050C0009F006C0FED9E0E0E093400300DAE7C44E
:10051C0002DAEF70C1F4A7E8B3E002DAE8D941F0EF
:10052C00FAD91CDCDF01E42D29D98DDC309709F0D8
:10053C000AC0FAD9CAD997DFE03009F0C5C47CD912
:10054C00D6DC09F3FAD913C0DCD9E1E0E0938003DF
:10055C0008DABBD9F2D9E8D9CADC49F40BDAE09352
:10056C008703F09388036093890370938A030BDAF3
:10057C000DDAABDCD0D913DAAFD8E0E2F0E0AFD8CB
:10058C000895ADDFE03089F40FDA09F4C0D9A6D9AB
:10059C0009F4A5C40DDAA53EA1F30ADAAE3289F34B
:1005AC000ADAE87009F49BC4ECCF8EC407DAA230E7
:1005BC0009F087C4E6DF0895E0916B03F0916C03BA
:1005CC0060916D0370916E0392DC71F0C1D8A091B3
:1005DC006B03B0916C0380916D0390916E03F1D914
:1005EC00E03011F0E1E02AC7B3D8EED9EAD926C73A
:1005FC00249797DCF2D969D937D908D99CD81091AE
:10060C006003F4D9F5D99F01552061F02DD91DD97E
:10061C0092D81068F4D9E050F240DF01E7D999DBA9
:10062C00F1D99F01A1D85CDB72D8C1F52ED948F065
:10063C00E885E03019F0E0E07BDC07C3E6E075D834
:10064C002DC0552081F4D90113DC309749F4E8858D
:10065C00E03029F4EFEFFFEFED93FC9318C0D5D900
:10066C002E5F3F4F0DC0D90107DC41DC39F4E88522
:10067C00E03019F4CDD90BDC0AC0C7D92C5F3F4F41
:10068C00A0E6B3E04DD91F5F103081F6B5CFD4D8BA
:10069C0028D856D81ADC90DF4BDCD7C2E1E048DC16
:1006AC00D4C2289740DCB9D9D0D8BCD9552019F47C
:1006BC00B4D9ACD8B7D9BBD987D912DB28D811F0AB
:1006CC00BBD9F0C4552069F4EA8558D891D98F016B
:1006DC00D801CEDB2DD8B3D9B7D9D801ED93FC9383
:1006EC000DC0AA85B8D8A0E6B1E033DB8BD98F0159
:1006FC00D801C2DBA4D9A0D8D801C9DB9DD8F7DBBF
:10070C0049F46BD98AD906DC28F4EA85FB856C851B
:10071C007D85E7D7A9D8AF3FEFEFBE07EFEF8E0788
:10072C00EFE09E0719F0A0D8EADB11F492D9CDD8EE
:10073C007ED9CBDB41DFFEDBB5C490D9AC81BD816A
:10074C005A96ED93FC9304D817DBAC81BD8154967B
:10075C00ED93FC9395C785D986D9E0E0F2E086D974
:10076C00A881A41568F4E88109D87ED80ED829D9B7
:10077C00E03011F0E1E0B9C3E881EF5FE883F0CF3E
:10078C00E0E0B3C3ACDEE030E9F4A8D871F010D9E6
:10079C00A53E19F00DD9A03039F4F8D8B8D791F49A
:1007AC00BAD8FDD865D90895EDCFB5D8309719F4DE
:1007BC00E5E0BBD707C057D95ED921F4B5D85ED9CF
:1007CC00E03019F0E0E0F0E00895B7D84CD9C3DF81
:1007DC0016D90895A6DBE2E0E51511F4E1E0A2C01C
:1007EC0089D7EC81E0783E2FEC81EF77EC83B9D898
:1007FC0047D9E0E0E0939303BDD84BD9552011F4D1
:10080C0051D947D9E0916001E03059F4EC81E030E6
:10081C0009F087C0E0E0E0934003E0E1E0934B0394
:10082C0057C000E611E043D990D08F01E1E0F0E031
:10083C00E017F10709F475C06AD8A3DEE03019F0AF
:10084C00E1E076DB2BC74AD839F09DD833D935D9BE
:10085C0043D7F1D6E03089F7EC81E03021F0002469
:10086C000016010609F017C07CD80AD9E1E0E5159D
:10087C0021F426D97FD849DB09F002C013D900D95D
:10088C002DD839F4EC817AD73197EA939ED050DB8E
:10089C0005C7E8E047C022D809F443C0D0DDF9D839
:1008AC0018D9B1F088D8E071E1F1303059F0A0914D
:1008BC008B03B0918C0380918D0390918E030CD996
:1008CC0024DB09F001C02DC0E1E0E0939303ABCF32
:1008DC001ED87CD70AD96FD8E07119F0E2E0E0930A
:1008EC007F03A091A003A130A9F414D999F4A0918D
:1008FC00A803B091A9038091AA039091AB0346D8A9
:10090C0004DB41F4A091A203B091A30304D8EA172D
:10091C00FB0709F003C0EED6EDE004C0E0E008DB15
:10092C00BDC6E4E0E0936403E1E002DBB7C6E98115
:10093C00FA81E491E03039F0F0D8A491E881EA171B
:10094C0009F420C4F4CFE0E01DC4EBDAB3D8ECD842
:10095C0030E008E0AC81BD811D91AC83BD831030CB
:10096C0029F4303071F1B5D6E3DA8AC61F3219F4A6
:10097C00DFD8DEDA85C61E3239F4303011F108309A
:10098C0001F538E00BE0E6CF0317D9F0E6E2F1E031
:10099C00A3D61A93CCDFE030A1F4113290F01038CA
:1009AC0080F4113610F01B3708F003C01FD8B09735
:1009BC001E2FA5E3B3E0E32F3F5FE0D623D81083CF
:1009CC00C9CFE1E0F0E0B4DA5BC62F97ACDAFE01F8
:1009DC00369682D66FD8AFD831F045D84CD809F0BE
:1009EC004DC02AD72CD8CEDE8F0173D821F458D71E
:1009FC0030D844D843C05BD836D8E0E2F0E036D8E3
:100A0C0056D8FE01389668D696D849F4BFD799D8EF
:100A1C00A9F548D83ED846D868D8E0E030C0F801EF
:100A2C003B96A0E1A08343D88BD68FD8AFD789D87B
:100A3C0029F50FD84AD748DD8AD88DDE12D874D85C
:100A4C00EEE2E0936001E0E1E0936B010AD878D626
:100A5C007CD880D869D8EEE2E0938001E0938101E4
:100A6C00E0E1E0938B01E0919303E03019F072D850
:100A7C0078D76BD8E1D629DAB1DB01C0E1E05ADADC
:100A8C0062960895F0D769D831F444D809F427C296
:100A9C0031D6E4E04AD618C2E6D75FD839F48ED7FF
:100AAC00A23009F41CC226D6E4E03FD60DC258D8B9
:100ABC0019F457D70AD713C05DD8309709F00FC275
:100ACC00A4D70AD8F9D616D9F5D6CED910DA09F0AA
:100ADC0006C256D8FAD6C7DCE03009F0F5C1ACD660
:100AEC0006DA59F4C0D7C7D709F0EEC139D819F4D2
:100AFC00A3D6CFD702C044D8C1D79ED6E0939703D4
:100B0C00F09398036093990370939A03DDDC94D669
:100B1C00B7D7E5C108DAFED711F03BD835C03BD8C2
:100B2C00309749F1C4DFE03079F524D837D8AA8161
:100B3C00BB81A017B10710F40A811B81F9D730973C
:100B4C0081F0F6D7C9D5C8D7C0D914D8C5D5AFD779
:100B5C0071D2E030C9F4F801AC81BD8153D7EC837C
:100B6C00FD8322D8F801FDD528D815D8E01BF10B50
:100B7C00EA83FB83D4CF18D829D8C7D910F42FD83F
:100B8C0037D8E0E0D7D97CC5B5D556D779C5CBD900
:100B9C00E0919F03E03011F4E0E098C0E0E0E093D6
:100BAC009F03F4D6B4D509F090C0B5D6F8D62CD89E
:100BBC000DD8D8015C966BD97AD7D3D6C6D7E6D6E2
:100BCC0084D90CDB83C02497AC81A13011F407D8F5
:100BDC0004C0AC81A23039F4F9D7AD81BE818F81CC
:100BEC0098857ED814D8FBD717D894D940F0F7D76E
:100BFC0013D885D8AD83BE838F83988702C052D714
:100C0C00DCD70FD8A7D5C3D5A130E0E8BE07E0E00C
:100C1C008E07E0E09E0728F0E0E0F0E860E070E08E
:100C2C0099D557D559D5B7D757D574DFE03011F0D2
:100C3C00E1E00BC0ACD5F5D75DD8E9D7F2D757D9E1
:100C4C0001F7A5DFCCD741D6E0E0299608956BD902
:100C5C0061D711F09ED737C0E9D7309719F4E9E086
:100C6C0064D531C087D79AD7E1D7E017F10720F4C4
:100C7C0000916503109166031ADFE03021F594D7DB
:100C8C00F8016FD5A0919303B091940380919503D3
:100C9C00909196033FD920F487D7F80162D5A8D755
:100CAC00E0E0F2E0E017F10719F016D730D559F46F
:100CBC0000936003109361035DD7E0936203F0939C
:100CCC006303E0E003C063DF15D5E1E036D9089596
:100CDC0021D711F05ED719C0FFD633D7B1F464D742
:100CEC00B3D63FD56AD7A0916003B09161039ED76C
:100CFC00EA1BFB0BE0936503F093660397D73097E1
:100D0C0019F445DFE03009F4EAC0F4D4DDC02497CF
:100D1C00ABD5B3D510F0B9D510F0E0E08FC38CD5BE
:100D2C0019D5BED515D5AAD6E03091F3E1E086C32E
:100D3C006D97F7D8E0917F03E03011F42AD743C0C8
:100D4C00209181033091820321D6E887F9876A8745
:100D5C007B8707D6F0D4E1E8EA93FFD6A1F5CAD495
:100D6C00CDD4D0D4D4D479F5F90119D64DD7FE0110
:100D7C003C96B2D4F8013B965ED7D801E5EEEC93E5
:100D8C0034D509F503D6C3D4F1F4C5D508D63CD770
:100D9C00F8013B96A1D4FE013E964DD7F7D5D1D69E
:100DAC0091F4F801E385E07161F0CAD48ED58CDB47
:100DBC0043D5ADD441F4CED68FD6C7D63DD5C1D60A
:100DCC0011F4E0E001C0E1E0B3D8A19608952497B6
:100DDC00AAD849D6C2D631F58DD490D4E5D519F41C
:100DEC00E4E0A3D41FC0D2D52AD695D5D8D50CD73C
:100DFC00E2D5E07149F08BD5C4DBE03099F46ED5C7
:100E0C0019F0E7E092D40EC024D681D459F4D8015D
:100E1C00E5EEEC931ED695D629F4A3D556D577DFFF
:100E2C0089D82EC409D62CC475D611F0B2D616C0EA
:100E3C0097D629F496D549D535D62BD606C0E8D504
:100E4C0044D59ED61BD6E03049F461DFE03031F456
:100E5C00C6D6CED69CDEE03009F441C04BD434C0AB
:100E6C005ED82FE733E040EA53E001E2D9011C9150
:100E7C00DA01EC91D901EC93E12FDA01EC932F5FBD
:100E8C003F4F4F5F5F4F0150003081F74FD8F8C391
:100E9C0031D408D6F5D55BD6EED5B1F411D6D0D673
:100EAC007AD715C0E2E0E51511F4E1E00BC077D478
:100EBC00C7D671D70CC02ED621F488D608C02AD636
:100ECC0029F0E3E0E0936403E1E0089588D6E09331
:100EDC006003F09361036093620370936303E0E03B
:100EEC000895E881EFB9779BFECF21960895EFEF37
:100EFC00EFB9779BFECFEFB1089515D8E0E0E91577
:100F0C0031F4AE81A13511F0A83509F401C007C048
:100F1C00AA81BB818C819D81E9E0FFD690D5C298D6
:100F2C00EE8196D6ED8194D6EC8192D6EB8190D65B
:100F3C00EA818ED6AE81A83411F4E7E801C0E5E968
:100F4C0087D600E0D4DF1E2FEF3F19F40F5F00307F
:100F5C00C9F7103019F4AE81AA3709F006C0C7DF03
:100F6C00E0749E2EC4DFC3DFC2DFC29AC0DFE12F64
:100F7C00E1D767C11A9310E0E7E76CD6E9E6EA938C
:100F8C00E0E0F0E060E070E469D611F4E0E0F6C176
:100F9C001150103089F7E1E0F1C11A9399241AE04D
:100FAC00103019F0A4DF1150FBCFE0E453D6E13040
:100FBC00A9F410E0E8E4EA93EAEAF1E060E070E01A
:100FCC004DD609F011E0D6DFE03041F4103021F0BD
:100FDC00EAE740D6E03011F4E0E0D0C1E1E0CEC168
:100FEC001A93C29AE2E5EDB9E0E0EEB91AE0D5DF6A
:100FFC00E03031F01150103011F434D6BFC1F7CFBE
:10100C00E0E5EDB9709AE1E0F0E066D35DD6E0E0A2
:10101C00B5C189D700E010E06ADFAE2FEA81EA178C
:10102C0019F4E0E087D7AEC0F80131968F01A1F733
:10103C0003D5A8C076D7E1E5EA93E985FA856B85F7
:10104C007C850CD661F5C298EEEFEA93E2DFE030D6
:10105C0031F520E032E0022E032AD9F048DF1E2FB2
:10106C00EE81FF81309721F03197EE83FF830EC024
:10107C005FD5309759F05CD53197EC83FD83EC85C7
:10108C00FD853196EC87FD873197108321503040D8
:10109C00E2CF2DDF2CDFC29A2ADFE0E002C0C29A39
:1010AC00E1D546D72E9608953ED7E8E5EA93EB8135
:1010BC00FC816D817E81D2D509F5C298EEEFC8D541
:1010CC0000E012E006D549F0AE81BF81ED91AE8310
:1010DC00BF83BED501501040F5CFEFEFB9D5EFEF80
:1010EC00B7D505DFEF71E53049F4EFEFEA9391DF07
:1010FC00E03021F4C29AFBDEE0E002C0C29AB2D525
:10110C0019D728960895AAD4309769F044D531960A
:10111C00EA83FB833197FF93EF9354D8AF91BF9140
:10112C00EC93A4D5F0CF8AC1FCD620E631E0A3D550
:10113C00E5E3F3E0E217F30749F03F932F932F5FBA
:10114C003F4FE12FAF91BF91EC9302C0EBE0EDD29A
:10115C00103069F7EDD672C181D4309741F0AA8175
:10116C00BB81ED91AA83BB8389D580D5F5CF66C1B0
:10117C00E881E03039F0D1D4E49180D5E881E150B8
:10118C00E883F6CF23960895CAD60A2C0B2809F4C7
:10119C0053C095DEE03009F053C04ED3EF7FF170B1
:1011AC0060707070A0E0B2E080E090E093D6A2D5C1
:1011BC008F01A016B10608F48501A01AB10A51D40A
:1011CC0076D4A8DCE030E1F540E651E0EE81E03089
:1011DC0011F1E0E0EE83E7E451D543D451D553D57A
:1011EC004C5F5F4F04501040E0916201F09163013D
:1011FC00A0916001B0916101EA1BFB0B31969F013C
:10120C002017310710F4890106C0201B310B2A1559
:10121C003B0508F4980127D4CED7EDB7FEB731972C
:10122C005BD21F930F932CD50F911F915A934A9316
:10123C003ED492DF28D5A9CF28D511F4E4E475D299
:10124C0075D62796089583D4AAD7E6E3F1E044D265
:10125C00E0E1EA938DDF0895E0916001E03029F43C
:10126C0000D4E7E4F1E038D21BD20CDCE03009F01A
:10127C000895EFEFFFEF5F010CD509F00895DCD274
:10128C000BD520F4A0906003B0906103E4E0F0E093
:10129C00AE16BF0610F4AA24BB2459D475DF0895EA
:1012AC00E0E0E093600104C0FCD4EFD409F00895B1
:1012BC00D3DF0895649737D637DFEDB7FEB7319794
:1012CC000BD21F930F93F1D40F911F91F1D4DDD456
:1012DC00C1F5A0916001AA3319F0DEDBE03089F58D
:1012EC00F8D361F163D9E03061F55ED311F4E3E436
:1012FC0026C0FE013296F0D146D3ECE0F0E0ECD102
:10130C00B1D1FE013E96E8D1ECE5F3E0A9D2E4D1EF
:10131C00A9D1FE017296E0D1E6E5F3E0A1D2DCD1D1
:10132C00A1D1E5E4ABD4FE013296D6D1E4E1F0E0F4
:10133C00D3D112DFA8D401501040D2CFEAE0E09311
:10134C006403F8D5669608951A9395D4AAD41536E5
:10135C0011F486DD0FC0143611F439DD0BC01030DA
:10136C0011F490DB07C0133018F41A9333DA02C06F
:10137C00ECE0DBD18AD411F4E3E4D7D119910895D0
:10138C0090D471D327DAE6E4EA9309D70CD789D441
:10139C007CD409F4CDDC79D411F4E3E4C6D10895FE
:1013AC0024971A9368D4FE0131965AD295D1ABDEAC
:1013BC007FD4143629F46DD411F018816FC11BC081
:1013CC00153631F46FDDE03011F0188167C113C0B0
:1013DC00163631F45DDDE03011F018815FC10BC0C1
:1013EC00E981FA816B817C8170D51A93ECDBE0305A
:1013FC0011F0188153C1E3E441D4E0E6F3E030D2BC
:10140C006BD1AADEE0E091D1188148C12497EAE0C3
:10141C00F0E062D14AD44CD43CD481F40DD29AD1B0
:10142C004EDDE03059F420D293D164D493D190D1D5
:10143C0033D410F4A880B98016D3A6DE2496089570
:10144C00E5E6F3E049D131D433D4F0D3309711F43D
:10145C00EBDC1CC0FCDBE03009F00895E6E40ED4B4
:10146C00E0E6F3E039D10CD49ED6E0916203F09122
:10147C006303FED231D1E8D22FD145DE19D428DC5A
:10148C00E03009F00895D2D3309721F7E3E44DD141
:10149C0008951A9318E0E981E07821F0A99A0BD409
:1014AC00A99803C0A99807D4A99A8AEC92E001974D
:1014BC00F1F7E981EE0FE9831150103061F71881D3
:1014CC00229608952CD5CDD2E7E5F1E005D1E8D0F0
:1014DC00D9DAE030C1F5DDD3B1F5C6D1A730E0E003
:1014EC00BE07E0E08E07E0E09E0768F1BDD1A130B9
:1014FC00E2E0BE07E0E08E07E0E09E0720F52091D9
:10150C00600330916103ADD23A932A9303DBE03050
:10151C00D1F400E210E0A7D2BCDFF80131978F01C3
:10152C00D1F7E6EEEA93B5DF40E651E0DA014F5F22
:10153C005F4FEC91EA93ADDFF90131979F01B1F761
:10154C00E0E0F4D49DC0E1E0F1D49AC0E0E0E1BB6E
:10155C00EFEFE2BBEDE2E7BBE1E1E8BBE2E0E4BBCD
:10156C00E5E0E5BBADD33DD69A990AC0ABDFE030E0
:10157C0039F0C09B02C0C09801C0C09AA1D3F9CF6A
:10158C00C09811D678D31331E9F775D3143BD9F73A
:10159C0072D31735C1F76FD3C09AE0E4EA93FFD545
:1015AC0072D347D7E03019F0E2E068D3E9CFE0E03E
:1015BC00BCD0103011F474DE36C0E2E45FD3F3D546
:1015CC0015D2E130A0E0FA0711F43DDE2CC0E23078
:1015DC00A0E0FA0711F468DE26C0E330A0E0FA07B9
:1015EC0011F468DE20C0E430A0E0FA0711F4ACDEA0
:1015FC001AC0E530A0E0FA0711F4D2DE14C0E630D0
:10160C00A0E0FA0711F402DF0EC0E730A0E0FA0701
:10161C0011F416DF08C0E830A0E0FA0711F4B0DED0
:10162C0002C0ECE082D031D321F0E0916403EA9364
:10163C00B6D5A6CFFFCF6627772789919991E991E7
:10164C00F991A991B991009629F001976D91719139
:10165C006717C9F3671B10F4EFEF0895E0E009F08A
:10166C00E395089599818881009641F0BD81AC8104
:10167C00FB81EA8161916D930197E1F7FD81EC812A
:10168C0026960895B981A881109631F0FC81EB81E2
:10169C006A8161931197E9F7EB81FC812596089596
:1016AC00E991F991A991B991CD0105900D92002084
:1016BC00E1F7FC010895F0E0EA5DFF4F0895E0E6E4
:1016CC00F1E0FA93EA93EA81FB816C817D81FDD391
:1016DC000895E0E0F0E00895FA93EA930895FCDFB2
:1016EC00A9CCE0937B03F0937C0360937D03709310
:1016FC007E030895E0E0E0937F030895E0E0E0933B
:10170C00A0030895E885F9856A857B850895DDD366
:10171C005ED5E0300895A885B9858A859B850895A6
:10172C00E887F9876A877B87EDCFE0936403089598
:10173C00662777270895EC83FD836E837F83089556
:10174C00EC81FD816E817F810895F2DFB4D3089521
:10175C00A8D30895B0D30895E0916E01F0916F0174
:10176C000895E6DFBDD20895EBDFA0916703B09139
:10177C0068038091690390916A030895F0E00895DD
:10178C00AC81BD818E819F81089500D308958ED345
:10179C000895DF01CB010895E42DF0DFF6CFA09181
:1017AC006F03B0917003809171039091720308954F
:1017BC00E0937303F0937403609375037093760353
:1017CC000895EF5FFF4F6F4F7F4F0895E0915C03DB
:1017DC00F0915D0360915E0370915F030895AFEF2C
:1017EC00BFEF8FEF9FEF6CD308958CDF6ED3F6D4E1
:1017FC00E0300895E0E6F3E06FDFA0916003B09174
:10180C00610380916203909163030895E0E0F1E03D
:10181C0060E070E0F3D20895A0916703B091680383
:10182C008091690390916A035BD24FD3A0916003BE
:10183C000895E2E0F0E00895E0916003F091610317
:10184C0060916203709163030895E0E8F0E060E05A
:10185C0070E0D4D20895BB27E0E8F0E0F7D2089509
:10186C003BDFE4E0F0E00895A0916003B0916103E8
:10187C0080916203909163030895A230E0E0BE076B
:10188C00E0E08E07E0E09E070895E0916F03F09191
:10189C0070036091710370917203E6DF3BD308957E
:1018AC00E0E0E0936003E0936103E0936203E09374
:1018BC00630308956EDF70CFA0917703B091780326
:1018CC008091790390917A030895E0936003F093EB
:1018DC00610360936203709363030895E091800346
:1018EC00E0300895A0918103B09182030895A091F6
:1018FC008303B09184038091850390918603FFD27A
:10190C000895E7DEE0938103F09382030895E0E00D
:10191C00E09380030895E0918103F0918203089590
:10192C00B1D24FDFB9D20895E0918303F0918403D3
:10193C00609185037091860308957EDFE0938303A5
:10194C00F09384036093850370938603BDD574DF95
:10195C00E0938703F09388036093890370938A0361
:10196C000895E0918B03F0918C0360918D0370913D
:10197C008E030895E0917303F091740360917503E5
:10198C00709176030895E0E4F3E0A6CEE09187032E
:10199C00F09188036091890370918A030895EF7028
:1019AC00F070EE0FD2D10895E0914003E03008952D
:1019BC00A09140030895E0914B030895A0917F03FB
:1019CC0008958ED182D20AC4A0916703B0916803A6
:1019DC008091690390916A030895E0917B03F091E3
:1019EC007C0360917D0370917E030895E12FC6CE38
:1019FC00A0E6B1E0EE0FFF1FEA0FFB1F0895E0E633
:101A0C00F1E00895EA0FFB1F0895ABE9B3E088CF2E
:101A1C00EFEFFFEF6FEF7FE00895AA85BB858C8514
:101A2C009D850895EE83FF83688779870895EE81FD
:101A3C00FF81688579850895E1E07CD20895EA8379
:101A4C00FB836C837D830895E0916003F0916103C7
:101A5C000895EA81FB816C817D810895E881F9818B
:101A6C000895CDDF39CEE0E0EA93089535DE0ACE55
:101A7C00E05AFE4F0895BCD5E030089526D211C629
:101A8C00E0939B03F0939C0360939D0370939E03E0
:101A9C000895E0938B03F0938C0360938D03709304
:101AAC008E030895E0E0F0E060E070E008951A9392
:101ABC000A930895E5E3F3E00FCEEBE0F0E0089530
:101ACC00A0919B03B0919C0380919D0390919E03E8
:101ADC000895002E012A0895E0919B03F0919C0338
:101AEC0060919D0370919E030895E0939303F0938E
:101AFC0094036093950370939603D4DFE0938F0364
:101B0C00F09390036093910370939203E1E0E09360
:101B1C007F03089553DFA1300895E981FA8131964E
:101B2C00E983FA8331970895E0E2EA93C6DF9ECF0A
:101B3C00EC81FD810895C1DFCFDD94DDE989E030D2
:101B4C000895C3D14BD3E0300895BFD1F6C5E1E081
:101B5C00EA930895E0E8F1E0BFCD3CD6E03008957B
:101B6C00E0918F03F0919003609191037091920337
:101B7C00BED10895E0918F03F0919003F170089518
:101B8C00E0919703F09198036091990370919A03F7
:101B9C000895E3E0CACDEA81FB810895A0E0B2E0AC
:101BAC00AE1BBF0B8D010895A0918F03B0919003D4
:101BBC0080919103909192030895E0938F03F09399
:101BCC00900360939103709392030895E0919303B3
:101BDC00F091940360919503709196030895E091B0
:101BEC008F03F0919003609191037091920308958B
:101BFC00E0939303F093940360939503709396038F
:101C0C00E1E0E0939F03089533DF8F010895ED83A6
:101C1C00FE836F8378870895AD81BE818F8198850F
:101C2C000895ED81FE816F8178850895E0916503BB
:101C3C00F0916603089550DDE5E1F0E04DDD12CD45
:101C4C00EAE077D0EF5FFF4F6F4F7F4F90D032CEEF
:101C5C00EA9347C9EA9326DF38D14FC936D14DD91B
:101C6C00E0300895E2E061DDE1E00895F7DE3197C0
:101C7C00E883F9830895A6D21E2F0895EA939BC298
:101C8C00D8DD2ADD69CAE1E4F9CFE0916403E030E4
:101C9C00089511D9E0300895D5018827992735D1B9
:101CAC00089542DAE1E4EA937AC2C3DD15DD2BCA6A
:101CBC00E1E4EA9374C28AEC92E00197F1F708959B
:101CCC00E4E6F0E009DD00C0E991F991309639F0D5
:101CDC0080ED97E00197F1F7A8953197C9F7089532
:101CEC00EA0FFB1F681F791F0895AE0FBF1F861FD9
:101CFC00971F0895EA1BFB0B680B790B0895AE1B1D
:101D0C00BF0B860B970B0895EA2BFB2B682B792BBB
:101D1C000895F195E195F0400895EE230E2EFD0106
:101D2C00BC0131F0EE0FFF1F661F771F0A94D1F72D
:101D3C000895EE230E2EFD01BC0131F076956795CA
:101D4C00F795E7950A94D1F70895EE0FFF1FEE0F64
:101D5C00FF1FEE0FFF1FEE0FFF1F0895F695E7957F
:101D6C00F695E795F695E795F695E79508957695AA
:101D7C006795F795E7950895E62FF72F60E070E0EB
:101D8C0008956E2F7F2FE0E0F0E008956F2F660F1F
:101D9C00660B762F08957A9F702D6B9F700DF89FB0
:101DAC00700DE99F700D6A9F602D710DFB9F600D8A
:101DBC00711DE89F600D711D8827FA9FF02D610D34
:101DCC00781FEB9FF00D611D781FEA9FE02DF10D40
:101DDC00681F781F08950024112490E1AA0FBB1FDF
:101DEC00001C111C0E1A1F0A18F40E0E1F1E01C027
:101DFC00A1609A9599F7FD01D00108953F934F93F7
:101E0C005F93002411244427552730E2AA0FBB1FEF
:101E1C00881F991F001C111C441F551F0E1A1F0AE6
:101E2C00460B570B28F40E0E1F1E461F571F01C0E2
:101E3C00A1603A9559F7FD01BC01D001CA015F912F
:101E4C004F913F910895C7DFFD010895E894B7FFC6
:101E5C0004C0A095B09511966894F7FD5ADFBBDFCE
:101E6C00FD010EF456DF0895C9DFFD01BC01089594
:101E7C00ED91FC9111970895ED91FD916D917C91EF
:101E8C0013970895ED91FD916D917D910895ED93CA
:101E9C00FD936D937C9308957E936E93FE93EE93D6
:101EAC000895E881F9816A817B810895A881B981BF
:101EBC008A819B810895E883F9836A837B830895E3
:101ECC00A083B1838283938308957A936A93FA9360
:101EDC00EA930895182E862F612D192E972F712DA8
:101EEC001B2EBF2FF12D1A2EAE2FE12D08953097FA
:101EFC0060407040089500240A160B0608950024D3
:101F0C000A160B06080609060895EA17FB07680768
:101F1C0079070895AE17BF078607970708955A9358
:101F2C004A933A932A931A930A9308955D814C81AC
:101F3C003B812A811981088108950991199108958D
:00000001FF
