:0600000032C0FECFFDCF6F
:10000600FCCFFBCFFACFF9CFF8CFF7CFF6CFF5CFAE
:10001600F4CFF3CFF2CFF1CFF0CFEFCFEECFEDCFDE
:100026002B2C3B3D5B5D2A3F3C3A3E5C7C2200002C
:1000360056312E302032332D30352D3230313320AB
:1000460000626F6F742F736462696F732E726B73C5
:1000560000626F6F742F626F6F742E726B73000085
:10006600F894EE27ECBBF1E0FBBFEBBFE5BFF8E190
:10007600F1BDE1BD8DE0A2E0BB27ED938A95E9F7DE
:1000860080E094E0A0E6ED930197E9F7EFE5EDBF98
:10009600E4E0EEBFC0E6D1E0D3C9989BFECF9899C5
:1000A600FECF0895FADFEFEFE1BB04C0F6DF7ADAA0
:1000B6000895F3DFE881E2BB21960895EEDFE0B311
:1000C600089575DA7EDA80DAE0E0F2E080DA43C19C
:1000D6006EDA64D740C12C97E2E0F0E060E070E0B1
:1000E60078DA80DA83DAE2E05E2EF4D6E03011F0D8
:1000F600E1E017C1E0E0E887E987EA87EB877ADA8B
:100106007EDA11F0E1E00DC1E0915E03F0915F034C
:10011600E535AAEAFA0719F5E0919601F0919701FB
:10012600E634A1E4FA07F9F0E091B201F091B301E7
:10013600E634A1E4FA07B9F066DA59DE21F4E09173
:100146002203E03009F40BC0E0912603F091270367
:1001560060912803709129035BDA41DE81F6E1E0C4
:100166005CDAE1E0DEC0E0917601F091770158DAE1
:100176005ADA5EDA34DE49F4E0918401F0918501C1
:1001860060918601709187014EDAE0917301F091DA
:10019600740153DA55DA23DE49F4E0918001F091D7
:1001A600810160918201709183014CDA6090710146
:1001B6007090720149DA27DA4CDAE0936703F0931C
:1001C60068036093690370936A03E0E0E0936B034E
:1001D600E0936C03E0936D03E0936E03A0917001CE
:1001E600A23050F039DAF4DCE0936B03F0936C0341
:1001F60060936D0370936E0340906D01E091700102
:1002060035DA36DA3ADA3FDD0EDA1EDA38DA08DAC5
:10021600D9DDE8DC2DDAE6DC34DAF30117DD00DAC5
:10022600E6DC32DA63DDEE5FFF4F6F4F7F4FE09320
:100236006F03F093700360937103709372030CDA8B
:10024600CCDCF30103DD05DAE0937703F093780362
:100256006093790370937A031ADAA73FEFE0BE073B
:10026600E0E08E07E0E09E0708F479CF10DAA73FBA
:10027600EFEFBE07E0E08E07E0E09E0728F4ECD93A
:10028600A7DC0EDA55244CC0E0918C01F0918D016B
:1002960060918E0170918F0103DAA0916E01B09189
:1002A6006F01A1DDD8F5A6D904DAB2D9A8D911F023
:1002B600E1E037C0A0916001B091610180916201D7
:1002C60090916301A235E2E5BE07E1E68E07E1E41F
:1002D6009E07C9F4E0914403F091450360914603FB
:1002E60070914703E237A2E7FA07A1E46A07A1E69D
:1002F6007A0749F4E3D9E030A0E0FA07A5E56A07F2
:10030600AAEA7A0709F00AC0E8E4F3E0E0D9ECE4E7
:10031600F3E0DDD9E2D911F0E1E003C0E1E05E2EC1
:10032600E0E02C960895A0D5E03009F452C5D3DE5E
:1003360008952497E0915A03F0915B037ED95520E6
:1003460049F0E0915403F09155036AD992DC97D9AC
:1003560053DC78D975D924960895552089F4C2D9E5
:10036600CDD9D2D9E2E0EA9F1A920A92DAD92FD9E8
:10037600E03019F5D9D9EF7FFF7F607070700EC03D
:10038600B1D9DBD9C1D9DFD95CDCE2D920D9E030DB
:10039600A1F4CAD9EF7FFF7F6F7F7F70E093600380
:1003A600F09361036093620370936303D5D9DDD93B
:1003B60010F0E3D908F0ECD90CC500C5B5D9E25068
:1003C600F04060407040EED95EDCEED901DCF5D934
:1003D6000895FCD999F1A1E8B3E0ED91FD9131962C
:1003E600FE93EE93F7D9109739F0F9D921F4F2D9A3
:1003F6006A167B0609F006C0FCD9E0E0E0934003EC
:10040600FED9E7C400DAEF70C1F4A7E8B3E000DA7A
:10041600E6D941F0F8D91ADCDF01E42D27D98BDCC7
:10042600309709F00AC0F8D9C8D997DFE03009F04B
:10043600C5C47AD9D4DC09F3F8D913C0DAD9E1E016
:10044600E093800306DAB9D9F0D9E6D9C8DC49F4D5
:1004560009DAE0938703F093880360938903709326
:100466008A0309DA0BDAA9DCCED911DAADD8E0E2D3
:10047600F0E0ADD80895ADDFE03089F40DDA09F487
:10048600BED9A4D909F4A5C40BDAA53EA1F308DAAE
:10049600AE3289F308DAE87009F49BC4ECCF8EC457
:1004A60005DAA23009F087C4E6DF0895E0916B0310
:1004B600F0916C0360916D0370916E0390DC71F0A6
:1004C600BFD8A0916B03B0916C0380916D0390919E
:1004D6006E03EFD9E03011F0E1E02AC7B1D8ECD9CC
:1004E600E8D926C7249795DCF0D967D935D906D936
:1004F6009AD810916003F2D9F3D99F01552061F083
:100506002BD91BD990D81068F2D9E050F240DF0100
:10051600E5D997DBEFD99F019FD85ADB70D8C1F593
:100526002CD948F0E885E03019F0E0E079DC07C323
:10053600E6E073D82DC0552081F4D90111DC30973F
:1005460049F4E885E03029F4EFEFFFEFED93FC93F3
:1005560018C0D3D92E5F3F4F0DC0D90105DC3FDC53
:1005660039F4E885E03019F4CBD909DC0AC0C5D9DD
:100576002C5F3F4FA0E6B3E04BD91F5F103081F6EA
:10058600B5CFD2D826D854D818DC90DF49DCD7C2EC
:10059600E1E046DCD4C228973EDCB7D9CED8BAD93A
:1005A600552019F4B2D9AAD8B5D9B9D985D910DB4D
:1005B60026D811F0B9D9F0C4552069F4EA8556D881
:1005C6008FD98F01D801CCDB2BD8B1D9B5D9D801B9
:1005D600ED93FC930DC0AA85B6D8A0E6B1E031DB59
:1005E60089D98F01D801C0DBA2D99ED8D801C7DB33
:1005F6009BD8F5DB49F469D988D904DC28F4EA8567
:10060600FB856C857D85E5D7A7D8AF3FEFEFBE07A5
:10061600EFEF8E07EFE09E0719F09ED8E8DB11F4A6
:1006260090D9CBD87CD9C9DB41DFFCDBB5C48ED9E8
:10063600AC81BD815A96ED93FC9302D815DBAC8153
:10064600BD815496ED93FC9392C783D984D9E0E09B
:10065600F2E084D9A881A41568F4E88107D87CD88B
:100666000CD827D9E03011F0E1E0B9C3E881EF5F9B
:10067600E883F0CFE0E0B3C3ACDEE030E9F4A6D81F
:1006860071F00ED9A53E19F00BD9A03039F4F6D881
:10069600B6D791F4B8D8FBD863D90895EDCFB3D8BF
:1006A600309719F4E5E0B9D707C055D95CD921F4DC
:1006B600B3D85CD9E03019F0E0E0F0E00895B5D8A1
:1006C6004AD9C3DF14D90895A4DBE2E0E51511F495
:1006D600E1E0A2C087D7EC81E0783E2FEC81EF778E
:1006E600EC83B7D845D9E0E0E0939303BBD849D96A
:1006F600552011F44FD945D9E0916001E03059F405
:10070600EC81E03009F087C0E0E0E0934003E0E1EF
:10071600E0934B0357C000E611E041D990D08F011A
:10072600E1E0F0E0E017F10709F475C068D8A3DE50
:10073600E03019F0E1E074DB28C748D839F09BD8DF
:1007460031D933D941D7EED6E03089F7EC81E030A4
:1007560021F000240016010609F017C07AD808D93E
:10076600E1E0E51521F424D97DD847DB09F002C084
:1007760011D9FED82BD839F4EC8178D73197EA9382
:100786009ED04EDB02C7E8E047C020D809F443C03C
:10079600D0DDF7D816D9B1F086D8E071E1F1303066
:1007A60059F0A0918B03B0918C0380918D039091A9
:1007B6008E030AD922DB09F001C02DC0E1E0E093E7
:1007C6009303ABCF1CD87AD708D96DD8E07119F04E
:1007D600E2E0E0937F03A091A003A130A9F412D92F
:1007E60099F4A091A803B091A9038091AA039091CE
:1007F600AB0344D802DB41F4A091A203B091A3035A
:1008060002D8EA17FB0709F003C0ECD6EDE004C0F6
:10081600E0E006DBBAC6E4E0E0936403E1E000DB77
:10082600B4C6E981FA81E491E03039F0EED8A491BA
:10083600E881EA1709F420C4F4CFE0E01DC4E9DA40
:10084600B1D8EAD830E008E0AC81BD811D91AC8317
:10085600BD83103029F4303071F1B3D6E1DA87C6A2
:100866001F3219F4DDD8DCDA82C61E3239F4303094
:1008760011F1083001F538E00BE0E6CF0317D9F0A7
:10088600E6E2F0E0A1D61A93CCDFE030A1F4113213
:1008960090F0103880F4113610F01B3708F003C0C2
:1008A6001DD8B0971E2FA5E3B3E0E32F3F5FDED63A
:1008B60021D81083C9CFE1E0F0E0B2DA58C62F970D
:1008C600AADAFE01369680D66DD8ADD831F043D877
:1008D6004AD809F04DC028D72AD8CEDE8F0171D864
:1008E60021F456D72ED842D843C059D834D8E0E29E
:1008F600F0E034D854D8FE01389666D694D849F438
:10090600BDD797D8A9F546D83CD844D866D8E0E0F4
:1009160030C0F8013B96A0E1A08341D889D68DD896
:10092600ADD787D829F50DD848D748DD88D88DDECC
:1009360010D872D8EEE2E0936001E0E1E0936B013B
:1009460008D876D67AD87ED867D8EEE2E0938001CA
:10095600E0938101E0E1E0938B01E0919303E030C5
:1009660019F070D876D769D8DFD627DAB1DB01C09F
:10097600E1E058DA62960895EED767D831F442D8A6
:1009860009F427C22FD6E4E048D618C2E4D75DD8CA
:1009960039F48CD7A23009F41CC224D6E4E03DD643
:1009A6000DC256D819F455D708D713C05BD830975F
:1009B60009F00FC2A2D708D8F7D614D9F3D6CCD9E6
:1009C6000EDA09F006C254D8F8D6C7DCE03009F0D2
:1009D600F5C1AAD604DA59F4BED7C5D709F0EEC1D7
:1009E60037D819F4A1D6CDD702C042D8BFD79CD6E6
:1009F600E0939703F09398036093990370939A0397
:100A0600DDDC92D6B5D7E5C106DAFCD711F039D8C8
:100A160035C039D8309749F1C4DFE03079F522D8AE
:100A260035D8AA81BB81A017B10710F40A811B81B2
:100A3600F7D7309781F0F4D7C7D5C6D7BED912D825
:100A4600C3D5ADD771D2E030C9F4F801AC81BD8110
:100A560051D7EC83FD8320D8F801FBD526D813D8CF
:100A6600E01BF10BEA83FB83D4CF16D827D8C5D970
:100A760010F42DD835D8E0E0D5D979C5B3D554D7FB
:100A860076C5C9D9E0919F03E03011F4E0E098C043
:100A9600E0E0E0939F03F2D6B2D509F090C0B3D65A
:100AA600F6D62AD80BD8D8015C9669D978D7D1D68C
:100AB600C4D7E4D682D90CDB83C02497AC81A1309D
:100AC60011F405D804C0AC81A23039F4F7D7AD8152
:100AD600BE818F8198857CD812D8F9D715D892D93E
:100AE60040F0F5D711D883D8AD83BE838F8398871E
:100AF60002C050D7DAD70DD8A5D5C1D5A130E0E8C8
:100B0600BE07E0E08E07E0E09E0728F0E0E0F0E8B0
:100B160060E070E097D555D557D5B5D755D574DF74
:100B2600E03011F0E1E00BC0AAD5F3D75BD8E7D7E8
:100B3600F0D755D901F7A5DFCAD73FD6E0E0299609
:100B4600089569D95FD711F09CD737C0E7D730979A
:100B560019F4E9E062D531C085D798D7DFD7E01719
:100B6600F10720F400916503109166031ADFE03067
:100B760021F592D7F8016DD5A0919303B091940316
:100B860080919503909196033DD920F485D7F8017D
:100B960060D5A6D7E0E0F2E0E017F10719F014D728
:100BA6002ED559F400936003109361035BD7E0934D
:100BB6006203F0936303E0E003C063DF13D5E1E073
:100BC60034D908951FD711F05CD719C0FDD631D797
:100BD600B1F462D7B1D63DD568D7A0916003B09184
:100BE60061039CD7EA1BFB0BE0936503F093660356
:100BF60095D7309719F445DFE03009F4EAC0F2D40E
:100C0600DDC02497A9D5B1D510F0B7D510F0E0E036
:100C16008FC38AD517D5BCD513D5A8D6E03091F3A6
:100C2600E1E086C36D97F5D8E0917F03E03011F4DB
:100C360028D743C020918103309182031FD6E887CD
:100C4600F9876A877B8705D6EED4E1E8EA93FDD675
:100C5600A1F5C8D4CBD4CED4D2D479F5F90117D620
:100C66004BD7FE013C96B0D4F8013B965CD7D80131
:100C7600E5EEEC9332D509F501D6C1D4F1F4C3D52E
:100C860006D63AD7F8013B969FD4FE013E964BD73F
:100C9600F5D5CFD691F4F801E385E07161F0C8D4BB
:100CA6008CD58CDB41D5ABD441F4CCD68DD6C5D60C
:100CB6003BD5BFD611F4E0E001C0E1E0B1D8A19682
:100CC60008952497A8D847D6C0D631F58BD48ED4AC
:100CD600E3D519F4E4E0A1D41FC0D0D528D693D526
:100CE600D6D50AD7E0D5E07149F089D5C4DBE03026
:100CF60099F46CD519F0E7E090D40EC022D67FD4D3
:100D060059F4D801E5EEEC931CD693D629F4A1D577
:100D160054D577DF87D82BC407D629C473D611F0EC
:100D2600B0D616C095D629F494D547D533D629D64C
:100D360006C0E6D542D59CD619D6E03049F461DF27
:100D4600E03031F4C4D6CCD69CDEE03009F441C0A4
:100D560049D434C05CD82FE733E040EA53E001E2DF
:100D6600D9011C91DA01EC91D901EC93E12FDA015A
:100D7600EC932F5F3F4F4F5F5F4F0150003081F77D
:100D86004DD8F5C32FD406D6F3D559D6ECD5B1F444
:100D96000FD6CED678D715C0E2E0E51511F4E1E01E
:100DA6000BC075D4C5D66FD70CC02CD621F486D609
:100DB60008C028D629F0E3E0E0936403E1E0089553
:100DC60086D6E0936003F0936103609362037093A9
:100DD6006303E0E00895E881EFB9779BFECF2196A3
:100DE6000895EFEFEFB9779BFECFEFB1089513D8D3
:100DF600E0E0E91531F4AE81A13511F0A83509F42A
:100E060001C007C0AA81BB818C819D81E9E0FDD626
:100E16008ED5C298EE8194D6ED8192D6EC8190D68D
:100E2600EB818ED6EA818CD6AE81A83411F4E7E840
:100E360001C0E5E985D600E0D4DF1E2FEF3F19F4A7
:100E46000F5F0030C9F7103019F4AE81AA3709F0E8
:100E560006C0C7DFE0749E2EC4DFC3DFC2DFC29ABE
:100E6600C0DFE12FDFD767C11A9310E0E7E76AD644
:100E7600E9E6EA93E0E0F0E060E070E467D611F4BA
:100E8600E0E0F6C11150103089F7E1E0F1C11A93A4
:100E960099241AE0103019F0A4DF1150FBCFE0E4DA
:100EA60051D6E130A9F410E0E8E4EA93EAEAF1E089
:100EB60060E070E04BD609F011E0D6DFE03041F497
:100EC600103021F0EAE73ED6E03011F4E0E0D0C180
:100ED600E1E0CEC11A93C29AE2E5EDB9E0E0EEB9DF
:100EE6001AE0D5DFE03031F01150103011F432D66F
:100EF600BFC1F7CFE0E5EDB9709AE1E0F0E064D369
:100F06005BD6E0E0B5C187D700E010E06ADFAE2F20
:100F1600EA81EA1719F4E0E085D7AEC0F801319608
:100F26008F01A1F701D5A8C074D7E1E5EA93E98559
:100F3600FA856B857C850AD661F5C298EEEFEA9351
:100F4600E2DFE03031F520E032E0022E032AD9F06C
:100F560048DF1E2FEE81FF81309721F03197EE8317
:100F6600FF830EC05DD5309759F05AD53197EC8383
:100F7600FD83EC85FD853196EC87FD8731971083DF
:100F860021503040E2CF2DDF2CDFC29A2ADFE0E08D
:100F960002C0C29ADFD544D72E9608953CD7E8E51D
:100FA600EA93EB81FC816D817E81D0D509F5C298EB
:100FB600EEEFC6D500E012E004D549F0AE81BF8160
:100FC600ED91AE83BF83BCD501501040F5CFEFEF56
:100FD600B7D5EFEFB5D505DFEF71E53049F4EFEFA3
:100FE600EA9391DFE03021F4C29AFBDEE0E002C032
:100FF600C29AB0D517D728960895A8D4309769F025
:1010060042D53196EA83FB833197FF93EF9356D807
:10101600AF91BF91EC93A2D5F0CF8AC1FAD620E664
:1010260031E0A1D5E5E3F3E0E217F30749F03F939A
:101036002F932F5F3F4FE12FAF91BF91EC9302C0EB
:10104600EBE0EBD2103069F7EBD672C17FD4309764
:1010560041F0AA81BB81ED91AA83BB8387D57ED55A
:10106600F5CF66C1E881E03039F0CFD4E4917ED582
:10107600E881E150E883F6CF23960895C8D60A2C76
:101086000B2809F453C095DEE03009F053C04CD369
:10109600EF7FF17060707070A0E0B2E080E090E0E9
:1010A60091D6A0D58F01A016B10608F48501A01A25
:1010B600B10A4FD474D4A8DCE030E1F540E651E043
:1010C600EE81E03011F1E0E0EE83E7E44FD541D464
:1010D6004FD551D54C5F5F4F04501040E0916201EF
:1010E600F0916301A0916001B0916101EA1BFB0BD5
:1010F60031969F012017310710F4890106C0201B85
:10110600310B2A153B0508F4980125D4D2D7EDB743
:10111600FEB7319759D21F930F932AD50F911F917E
:101126005A934A933CD492DF26D5A9CF26D511F4FB
:10113600E4E473D273D62796089581D4B3D7E6E351
:10114600F0E042D2E0E1EA938DDF0895E09160019C
:10115600E03029F4FED3E7E4F0E036D218D20CDC16
:10116600E03009F00895EFEFFFEF5F010AD509F0CF
:101176000895DAD209D520F4A0906003B0906103F7
:10118600E4E0F0E0AE16BF0610F4AA24BB2457D460
:1011960075DF0895E0E0E093600104C0FAD4EDD471
:1011A60009F00895D3DF0895649735D637DFEDB794
:1011B600FEB7319709D21F930F93EFD40F911F916A
:1011C600EFD4DBD4C1F5A0916001AA3319F0DEDBC0
:1011D600E03089F5F6D361F163D9E03061F55CD38F
:1011E60011F4E3E426C0FE013296EED144D3ECE0DE
:1011F600F0E0EAD1AED1FE013E96E6D1ECE5F3E0B1
:10120600A7D2E2D1A6D1FE017296DED1E6E5F3E0E1
:101216009FD2DAD19ED1E5E4A9D4FE013296D4D18B
:10122600E4E1F0E0D1D112DFA6D401501040D2CFD4
:10123600EAE0E0936403F6D5669608951A9393D48C
:10124600A8D4153611F486DD0FC0143611F439DD35
:101256000BC0103011F490DB07C0133018F41A934A
:1012660033DA02C0ECE0D9D188D411F4E3E4D5D165
:10127600199108958ED46FD327DAE6E4EA9312D74C
:1012860015D787D47AD409F4CDDC77D411F4E3E406
:10129600C4D1089524971A9366D4FE01319658D284
:1012A60093D1ABDE7DD4143629F46BD411F01881BA
:1012B6006CC11BC0153631F46FDDE03011F01881BA
:1012C60064C113C0163631F45DDDE03011F01881CB
:1012D6005CC10BC0E981FA816B817C816ED51A9362
:1012E600ECDBE03011F0188150C1E3E43FD4E0E6D6
:1012F600F3E02ED269D1AADEE0E08FD1188145C194
:101306002497EAE0F0E060D148D44AD43AD481F494
:101316000BD298D14EDDE03059F41ED291D162D471
:1013260091D18ED131D410F4A880B98014D3A6DE21
:1013360024960895E5E6F3E047D12FD431D4EED3D1
:10134600309711F4EBDC1CC0FCDBE03009F00895AB
:10135600E6E40CD4E0E6F3E037D10AD4A7D6E09170
:101366006203F0916303FCD22FD1E6D22DD145DE84
:1013760017D428DCE03009F00895D0D3309721F750
:10138600E3E44BD108951A9318E0E981E07821F05F
:10139600A99A09D4A99803C0A99805D4A99A8AEC50
:1013A60092E00197F1F7E981EE0FE98311501030D1
:1013B60061F71881229608952AD5CBD2E7E5F0E0A9
:1013C60003D1E5D0D9DAE030C1F5DBD3B1F5C4D12C
:1013D600A730E0E0BE07E0E08E07E0E09E0768F198
:1013E600BBD1A130E2E0BE07E0E08E07E0E09E0759
:1013F60020F52091600330916103ABD23A932A9392
:1014060003DBE030D1F400E210E0A5D2BCDFF80146
:1014160031978F01D1F7E6EEEA93B5DF40E651E06A
:10142600DA014F5F5F4FEC91EA93ADDFF901319737
:101436009F01B1F7E0E0F2D49AC0E1E0EFD497C0A3
:10144600B1D0EDE2E7BBE1E1E8BBE2E0E4BBE5E019
:10145600E5BBAED340D69A990AC0AEDFE03039F08C
:10146600C09B02C0C09801C0C09AA2D3F9CFC09851
:101476001DD679D31331E9F776D3143BD9F773D355
:101486001735C1F770D3C09AE0E4EA930BD673D34D
:101496004AD7E03019F0E2E069D3E9CFE0E0BDD009
:1014A600103011F477DE36C0E2E460D3FFD516D2F1
:1014B600E130A0E0FA0711F440DE2CC0E230A0E0F3
:1014C600FA0711F46BDE26C0E330A0E0FA0711F448
:1014D6006BDE20C0E430A0E0FA0711F4AFDE1AC0DC
:1014E600E530A0E0FA0711F4D5DE14C0E630A0E03E
:1014F600FA0711F405DF0EC0E730A0E0FA0711F491
:1015060019DF08C0E830A0E0FA0711F4B3DE02C024
:10151600ECE083D032D321F0E0916403EA93C2D5A4
:10152600A6CFFFCF6627772789919991E991F991FF
:10153600A991B991009629F001976D91719167175C
:10154600C9F3671B10F4EFEF0895E0E009F0E395A7
:10155600089599818881009641F0BD81AC81FB8117
:10156600EA8161916D930197E1F7FD81EC81269601
:101576000895B981A881109631F0FC81EB816A81CA
:1015860061931197E9F7EB81FC8125960895E9911E
:10159600F991A991B991CD0105900D920020E1F73D
:1015A600FC010895E0E0E1BBEFEFE2BB0895E0E661
:1015B600F1E0FA93EA93EA81FB816C817D81FDD3A8
:1015C6000895E0E0F0E00895FA93EA930895FCDFC9
:1015D600ABCCE0937B03F0937C0360937D03709325
:1015E6007E030895E0E0E0937F030895E0E0E09352
:1015F600A0030895E885F9856A857B850895DDD37E
:1016060060D5E0300895A885B9858A859B850895BB
:10161600E887F9876A877B87EDCFE09364030895AF
:10162600662777270895EC83FD836E837F8308956D
:10163600EC81FD816E817F810895F2DFB4D3089538
:10164600A8D30895B0D30895E0916E01F0916F018B
:101656000895E6DFBDD20895EBDFA0916703B09150
:1016660068038091690390916A030895F0E00895F4
:10167600AC81BD818E819F81089500D308958ED35C
:101686000895DF01CB010895E42DF0DFF6CFA09198
:101696006F03B09170038091710390917203089566
:1016A600E0937303F093740360937503709376036A
:1016B6000895EF5FFF4F6F4F7F4F0895E0915C03F2
:1016C600F0915D0360915E0370915F030895AFEF43
:1016D600BFEF8FEF9FEF6CD308958CDF6ED3F8D4F6
:1016E600E0300895E0E6F3E06FDFA0916003B0918B
:1016F600610380916203909163030895E0E0F1E055
:1017060060E070E0F3D20895A0916703B09168039A
:101716008091690390916A035BD24FD3A0916003D5
:101726000895E2E0F0E00895E0916003F09161032E
:1017360060916203709163030895E0E8F0E060E071
:1017460070E0D4D20895BB27E0E8F0E0F7D2089520
:101756003BDFE4E0F0E00895A0916003B0916103FF
:1017660080916203909163030895A230E0E0BE0782
:10177600E0E08E07E0E09E070895E0916F03F091A8
:1017860070036091710370917203E6DF3BD3089595
:10179600E0E0E0936003E0936103E0936203E0938B
:1017A600630308956EDF70CFA0917703B09178033D
:1017B6008091790390917A030895E0936003F09302
:1017C600610360936203709363030895E09180035D
:1017D600E0300895A0918103B09182030895A0910D
:1017E6008303B09184038091850390918603FFD291
:1017F6000895E7DEE0938103F09382030895E0E025
:10180600E09380030895E0918103F09182030895A7
:10181600B1D24FDFB9D20895E0918303F0918403EA
:10182600609185037091860308957EDFE0938303BC
:10183600F09384036093850370938603BFD574DFAA
:10184600E0938703F09388036093890370938A0378
:101856000895E0918B03F0918C0360918D03709154
:101866008E030895E0917303F091740360917503FC
:10187600709176030895E0E4F3E0A6CEE091870345
:10188600F09188036091890370918A030895EF703F
:10189600F070EE0FD2D10895E0914003E030089544
:1018A600A09140030895E0914B030895A0917F0312
:1018B60008958ED182D20CC4A0916703B0916803BB
:1018C6008091690390916A030895E0917B03F091FA
:1018D6007C0360917D0370917E030895E12FC6CE4F
:1018E600A0E6B1E0EE0FFF1FEA0FFB1F0895E0E64A
:1018F600F1E00895EA0FFB1F0895ABE9B3E088CF46
:10190600EFEFFFEF6FEF7FE00895AA85BB858C852B
:101916009D850895EE83FF83688779870895EE8114
:10192600FF81688579850895E1E07CD20895EA8390
:10193600FB836C837D830895E0916003F0916103DE
:101946000895EA81FB816C817D810895E881F981A2
:101956000895CDDF39CEE0E0EA93089535DE09CE6D
:10196600E05AFE4F0895BED5E030089526D213C63C
:10197600E0939B03F0939C0360939D0370939E03F7
:101986000895E0938B03F0938C0360938D0370931B
:101996008E030895E0E0F0E060E070E008951A93A9
:1019A6000A930895E5E3F3E00FCEEBE0F0E0089547
:1019B600A0919B03B0919C0380919D0390919E03FF
:1019C6000895002E012A0895E0919B03F0919C034F
:1019D60060919D0370919E030895E0939303F093A5
:1019E60094036093950370939603D4DFE0938F037B
:1019F600F09390036093910370939203E1E0E09378
:101A06007F03089553DFA1300895E981FA81319665
:101A1600E983FA8331970895E0E2EA93C6DF9ECF21
:101A2600EC81FD810895C1DFCFDD93DDE989E030EA
:101A36000895C3D14DD3E0300895BFD1F8C5E1E094
:101A4600EA930895E0E8F1E0BFCD3ED6E030089590
:101A5600E0918F03F091900360919103709192034E
:101A6600BED10895E0918F03F0919003F17008952F
:101A7600E0919703F09198036091990370919A030E
:101A86000895E3E0CACDEA81FB810895A0E0B2E0C3
:101A9600AE1BBF0B8D010895A0918F03B0919003EB
:101AA60080919103909192030895E0938F03F093B0
:101AB600900360939103709392030895E0919303CA
:101AC600F091940360919503709196030895E091C7
:101AD6008F03F091900360919103709192030895A2
:101AE600E0939303F09394036093950370939603A6
:101AF600E1E0E0939F03089533DF8F010895ED83BE
:101B0600FE836F8378870895AD81BE818F81988526
:101B16000895ED81FE816F8178850895E0916503D2
:101B2600F0916603089550DDE5E1F0E04DDD11CD5D
:101B3600EAE077D0EF5FFF4F6F4F7F4F90D032CE06
:101B4600EA9349C9EA9326DF38D151C936D14FD92C
:101B5600E0300895E2E061DDE1E00895F7DE3197D7
:101B6600E883F9830895AAD21E2F0895EA93A1C2A5
:101B7600D8DD2ADD6BCAE1E4F9CFE0916403E030F9
:101B8600089513D9E0300895D5018827992735D1CE
:101B9600089544DAE1E4EA9385C2C3DD15DD2DCA72
:101BA600E1E4EA937FC28AEC92E00197F1F70895A7
:101BB600E4E6F0E009DD00C0E991F991309639F0EC
:101BC60080ED97E00197F1F7A8953197C9F7089549
:101BD600EA0FFB1F681F791F0895AE0FBF1F861FF0
:101BE600971F0895EA1BFB0B680B790B0895AE1B34
:101BF600BF0B860B970B0895EA2BFB2B682B792BD3
:101C06000895F195E195F0400895EE230E2EFD011D
:101C1600BC0131F0EE0FFF1F661F771F0A94D1F744
:101C26000895EE230E2EFD01BC0131F076956795E1
:101C3600F795E7950A94D1F70895EE0FFF1FEE0F7B
:101C4600FF1FEE0FFF1FEE0FFF1F0895F695E79596
:101C5600F695E795F695E795F695E79508957695C1
:101C66006795F795E7950895E62FF72F60E070E002
:101C760008956E2F7F2FE0E0F0E008956F2F660F36
:101C8600660B762F08957A9F702D6B9F700DF89FC7
:101C9600700DE99F700D6A9F602D710DFB9F600DA1
:101CA600711DE89F600D711D8827FA9FF02D610D4B
:101CB600781FEB9FF00D611D781FEA9FE02DF10D57
:101CC600681F781F08950024112490E1AA0FBB1FF6
:101CD600001C111C0E1A1F0A18F40E0E1F1E01C03E
:101CE600A1609A9599F7FD01D00108953F934F930E
:101CF6005F93002411244427552730E2AA0FBB1F07
:101D0600881F991F001C111C441F551F0E1A1F0AFD
:101D1600460B570B28F40E0E1F1E461F571F01C0F9
:101D2600A1603A9559F7FD01BC01D001CA015F9146
:101D36004F913F910895C7DFFD010895E894B7FFDD
:101D460004C0A095B09511966894F7FD5ADFBBDFE5
:101D5600FD010EF456DF0895C9DFFD01BC010895AB
:101D6600ED91FC9111970895ED91FD916D917C9106
:101D760013970895ED91FD916D917D910895ED93E1
:101D8600FD936D937C9308957E936E93FE93EE93ED
:101D96000895E881F9816A817B810895A881B981D6
:101DA6008A819B810895E883F9836A837B830895FA
:101DB600A083B1838283938308957A936A93FA9377
:101DC600EA930895182E862F612D192E972F712DBF
:101DD6001B2EBF2FF12D1A2EAE2FE12D0895309711
:101DE60060407040089500240A160B0608950024EA
:101DF6000A160B06080609060895EA17FB07680780
:101E060079070895AE17BF078607970708955A936F
:101E16004A933A932A931A930A9308955D814C81C3
:101E26003B812A81198108810895099119910895A4
:00000001FF
